{
    "_format": "hh-sol-artifact-1",
    "contractName": "WavesERC1155Token",
    "sourceName": "contracts/WavesERC1155Token.sol",
    "abi": [
        {
            "inputs": [
                {
                    "internalType": "address",
                    "name": "sender",
                    "type": "address"
                },
                {
                    "internalType": "uint256",
                    "name": "balance",
                    "type": "uint256"
                },
                {
                    "internalType": "uint256",
                    "name": "needed",
                    "type": "uint256"
                },
                {
                    "internalType": "uint256",
                    "name": "tokenId",
                    "type": "uint256"
                }
            ],
            "name": "ERC1155InsufficientBalance",
            "type": "error"
        },
        {
            "inputs": [
                {
                    "internalType": "address",
                    "name": "approver",
                    "type": "address"
                }
            ],
            "name": "ERC1155InvalidApprover",
            "type": "error"
        },
        {
            "inputs": [
                {
                    "internalType": "uint256",
                    "name": "idsLength",
                    "type": "uint256"
                },
                {
                    "internalType": "uint256",
                    "name": "valuesLength",
                    "type": "uint256"
                }
            ],
            "name": "ERC1155InvalidArrayLength",
            "type": "error"
        },
        {
            "inputs": [
                {
                    "internalType": "address",
                    "name": "operator",
                    "type": "address"
                }
            ],
            "name": "ERC1155InvalidOperator",
            "type": "error"
        },
        {
            "inputs": [
                {
                    "internalType": "address",
                    "name": "receiver",
                    "type": "address"
                }
            ],
            "name": "ERC1155InvalidReceiver",
            "type": "error"
        },
        {
            "inputs": [
                {
                    "internalType": "address",
                    "name": "sender",
                    "type": "address"
                }
            ],
            "name": "ERC1155InvalidSender",
            "type": "error"
        },
        {
            "inputs": [
                {
                    "internalType": "address",
                    "name": "operator",
                    "type": "address"
                },
                {
                    "internalType": "address",
                    "name": "owner",
                    "type": "address"
                }
            ],
            "name": "ERC1155MissingApprovalForAll",
            "type": "error"
        },
        {
            "inputs": [],
            "name": "InvalidInitialization",
            "type": "error"
        },
        {
            "inputs": [],
            "name": "NotInitializing",
            "type": "error"
        },
        {
            "inputs": [
                {
                    "internalType": "address",
                    "name": "owner",
                    "type": "address"
                }
            ],
            "name": "OwnableInvalidOwner",
            "type": "error"
        },
        {
            "inputs": [
                {
                    "internalType": "address",
                    "name": "account",
                    "type": "address"
                }
            ],
            "name": "OwnableUnauthorizedAccount",
            "type": "error"
        },
        {
            "anonymous": false,
            "inputs": [
                {
                    "indexed": true,
                    "internalType": "address",
                    "name": "account",
                    "type": "address"
                },
                {
                    "indexed": true,
                    "internalType": "address",
                    "name": "operator",
                    "type": "address"
                },
                {
                    "indexed": false,
                    "internalType": "bool",
                    "name": "approved",
                    "type": "bool"
                }
            ],
            "name": "ApprovalForAll",
            "type": "event"
        },
        {
            "anonymous": false,
            "inputs": [
                {
                    "indexed": false,
                    "internalType": "address",
                    "name": "requester",
                    "type": "address"
                },
                {
                    "indexed": false,
                    "internalType": "address",
                    "name": "responder",
                    "type": "address"
                },
                {
                    "indexed": false,
                    "internalType": "uint256",
                    "name": "requesterTokenId",
                    "type": "uint256"
                },
                {
                    "indexed": false,
                    "internalType": "uint256",
                    "name": "responderTokenId",
                    "type": "uint256"
                }
            ],
            "name": "ExchangeWave",
            "type": "event"
        },
        {
            "anonymous": false,
            "inputs": [
                {
                    "indexed": false,
                    "internalType": "uint64",
                    "name": "version",
                    "type": "uint64"
                }
            ],
            "name": "Initialized",
            "type": "event"
        },
        {
            "anonymous": false,
            "inputs": [
                {
                    "indexed": false,
                    "internalType": "uint256",
                    "name": "maxWavePerCreator",
                    "type": "uint256"
                }
            ],
            "name": "MaxWavePerCreatorUpdated",
            "type": "event"
        },
        {
            "anonymous": false,
            "inputs": [
                {
                    "indexed": true,
                    "internalType": "address",
                    "name": "previousOwner",
                    "type": "address"
                },
                {
                    "indexed": true,
                    "internalType": "address",
                    "name": "newOwner",
                    "type": "address"
                }
            ],
            "name": "OwnershipTransferred",
            "type": "event"
        },
        {
            "anonymous": false,
            "inputs": [
                {
                    "indexed": true,
                    "internalType": "address",
                    "name": "operator",
                    "type": "address"
                },
                {
                    "indexed": true,
                    "internalType": "address",
                    "name": "from",
                    "type": "address"
                },
                {
                    "indexed": true,
                    "internalType": "address",
                    "name": "to",
                    "type": "address"
                },
                {
                    "indexed": false,
                    "internalType": "uint256[]",
                    "name": "ids",
                    "type": "uint256[]"
                },
                {
                    "indexed": false,
                    "internalType": "uint256[]",
                    "name": "values",
                    "type": "uint256[]"
                }
            ],
            "name": "TransferBatch",
            "type": "event"
        },
        {
            "anonymous": false,
            "inputs": [
                {
                    "indexed": true,
                    "internalType": "address",
                    "name": "operator",
                    "type": "address"
                },
                {
                    "indexed": true,
                    "internalType": "address",
                    "name": "from",
                    "type": "address"
                },
                {
                    "indexed": true,
                    "internalType": "address",
                    "name": "to",
                    "type": "address"
                },
                {
                    "indexed": false,
                    "internalType": "uint256",
                    "name": "id",
                    "type": "uint256"
                },
                {
                    "indexed": false,
                    "internalType": "uint256",
                    "name": "value",
                    "type": "uint256"
                }
            ],
            "name": "TransferSingle",
            "type": "event"
        },
        {
            "anonymous": false,
            "inputs": [
                {
                    "indexed": false,
                    "internalType": "string",
                    "name": "value",
                    "type": "string"
                },
                {
                    "indexed": true,
                    "internalType": "uint256",
                    "name": "id",
                    "type": "uint256"
                }
            ],
            "name": "URI",
            "type": "event"
        },
        {
            "inputs": [
                {
                    "internalType": "address",
                    "name": "account",
                    "type": "address"
                },
                {
                    "internalType": "uint256",
                    "name": "id",
                    "type": "uint256"
                }
            ],
            "name": "balanceOf",
            "outputs": [
                {
                    "internalType": "uint256",
                    "name": "",
                    "type": "uint256"
                }
            ],
            "stateMutability": "view",
            "type": "function"
        },
        {
            "inputs": [
                {
                    "internalType": "address[]",
                    "name": "accounts",
                    "type": "address[]"
                },
                {
                    "internalType": "uint256[]",
                    "name": "ids",
                    "type": "uint256[]"
                }
            ],
            "name": "balanceOfBatch",
            "outputs": [
                {
                    "internalType": "uint256[]",
                    "name": "",
                    "type": "uint256[]"
                }
            ],
            "stateMutability": "view",
            "type": "function"
        },
        {
            "inputs": [
                {
                    "internalType": "address",
                    "name": "account",
                    "type": "address"
                },
                {
                    "internalType": "uint256",
                    "name": "id",
                    "type": "uint256"
                },
                {
                    "internalType": "uint256",
                    "name": "amount",
                    "type": "uint256"
                }
            ],
            "name": "burn",
            "outputs": [],
            "stateMutability": "nonpayable",
            "type": "function"
        },
        {
            "inputs": [
                {
                    "internalType": "address",
                    "name": "requester",
                    "type": "address"
                },
                {
                    "internalType": "address",
                    "name": "responder",
                    "type": "address"
                },
                {
                    "internalType": "uint256",
                    "name": "requesterTokenId",
                    "type": "uint256"
                },
                {
                    "internalType": "uint256",
                    "name": "responderTokenId",
                    "type": "uint256"
                }
            ],
            "name": "exchangeWave",
            "outputs": [],
            "stateMutability": "nonpayable",
            "type": "function"
        },
        {
            "inputs": [
                {
                    "internalType": "string",
                    "name": "_uri",
                    "type": "string"
                },
                {
                    "internalType": "address",
                    "name": "account",
                    "type": "address"
                },
                {
                    "internalType": "uint256",
                    "name": "_maxWavePerCreator",
                    "type": "uint256"
                }
            ],
            "name": "initialize",
            "outputs": [],
            "stateMutability": "nonpayable",
            "type": "function"
        },
        {
            "inputs": [
                {
                    "internalType": "address",
                    "name": "account",
                    "type": "address"
                },
                {
                    "internalType": "address",
                    "name": "operator",
                    "type": "address"
                }
            ],
            "name": "isApprovedForAll",
            "outputs": [
                {
                    "internalType": "bool",
                    "name": "",
                    "type": "bool"
                }
            ],
            "stateMutability": "view",
            "type": "function"
        },
        {
            "inputs": [],
            "name": "maxWavePerCreator",
            "outputs": [
                {
                    "internalType": "uint256",
                    "name": "",
                    "type": "uint256"
                }
            ],
            "stateMutability": "view",
            "type": "function"
        },
        {
            "inputs": [
                {
                    "internalType": "address",
                    "name": "account",
                    "type": "address"
                },
                {
                    "internalType": "uint256",
                    "name": "id",
                    "type": "uint256"
                },
                {
                    "internalType": "uint256",
                    "name": "amount",
                    "type": "uint256"
                },
                {
                    "internalType": "bytes",
                    "name": "data",
                    "type": "bytes"
                }
            ],
            "name": "mint",
            "outputs": [],
            "stateMutability": "nonpayable",
            "type": "function"
        },
        {
            "inputs": [
                {
                    "internalType": "address",
                    "name": "to",
                    "type": "address"
                },
                {
                    "internalType": "uint256[]",
                    "name": "ids",
                    "type": "uint256[]"
                },
                {
                    "internalType": "uint256[]",
                    "name": "amounts",
                    "type": "uint256[]"
                },
                {
                    "internalType": "bytes",
                    "name": "data",
                    "type": "bytes"
                }
            ],
            "name": "mintBatch",
            "outputs": [],
            "stateMutability": "nonpayable",
            "type": "function"
        },
        {
            "inputs": [],
            "name": "owner",
            "outputs": [
                {
                    "internalType": "address",
                    "name": "",
                    "type": "address"
                }
            ],
            "stateMutability": "view",
            "type": "function"
        },
        {
            "inputs": [],
            "name": "renounceOwnership",
            "outputs": [],
            "stateMutability": "nonpayable",
            "type": "function"
        },
        {
            "inputs": [
                {
                    "internalType": "address",
                    "name": "from",
                    "type": "address"
                },
                {
                    "internalType": "address",
                    "name": "to",
                    "type": "address"
                },
                {
                    "internalType": "uint256[]",
                    "name": "ids",
                    "type": "uint256[]"
                },
                {
                    "internalType": "uint256[]",
                    "name": "values",
                    "type": "uint256[]"
                },
                {
                    "internalType": "bytes",
                    "name": "data",
                    "type": "bytes"
                }
            ],
            "name": "safeBatchTransferFrom",
            "outputs": [],
            "stateMutability": "nonpayable",
            "type": "function"
        },
        {
            "inputs": [
                {
                    "internalType": "address",
                    "name": "from",
                    "type": "address"
                },
                {
                    "internalType": "address",
                    "name": "to",
                    "type": "address"
                },
                {
                    "internalType": "uint256",
                    "name": "id",
                    "type": "uint256"
                },
                {
                    "internalType": "uint256",
                    "name": "value",
                    "type": "uint256"
                },
                {
                    "internalType": "bytes",
                    "name": "data",
                    "type": "bytes"
                }
            ],
            "name": "safeTransferFrom",
            "outputs": [],
            "stateMutability": "nonpayable",
            "type": "function"
        },
        {
            "inputs": [
                {
                    "internalType": "address",
                    "name": "operator",
                    "type": "address"
                },
                {
                    "internalType": "bool",
                    "name": "approved",
                    "type": "bool"
                }
            ],
            "name": "setApprovalForAll",
            "outputs": [],
            "stateMutability": "nonpayable",
            "type": "function"
        },
        {
            "inputs": [
                {
                    "internalType": "uint256",
                    "name": "_maxWavePerCreator",
                    "type": "uint256"
                }
            ],
            "name": "setMaxWavePerCreator",
            "outputs": [],
            "stateMutability": "nonpayable",
            "type": "function"
        },
        {
            "inputs": [
                {
                    "internalType": "string",
                    "name": "newuri",
                    "type": "string"
                }
            ],
            "name": "setURI",
            "outputs": [],
            "stateMutability": "nonpayable",
            "type": "function"
        },
        {
            "inputs": [
                {
                    "internalType": "bytes4",
                    "name": "interfaceId",
                    "type": "bytes4"
                }
            ],
            "name": "supportsInterface",
            "outputs": [
                {
                    "internalType": "bool",
                    "name": "",
                    "type": "bool"
                }
            ],
            "stateMutability": "view",
            "type": "function"
        },
        {
            "inputs": [
                {
                    "internalType": "address",
                    "name": "",
                    "type": "address"
                },
                {
                    "internalType": "uint256",
                    "name": "",
                    "type": "uint256"
                }
            ],
            "name": "tokensMintedByCreator",
            "outputs": [
                {
                    "internalType": "uint256",
                    "name": "",
                    "type": "uint256"
                }
            ],
            "stateMutability": "view",
            "type": "function"
        },
        {
            "inputs": [
                {
                    "internalType": "address",
                    "name": "newOwner",
                    "type": "address"
                }
            ],
            "name": "transferOwnership",
            "outputs": [],
            "stateMutability": "nonpayable",
            "type": "function"
        },
        {
            "inputs": [
                {
                    "internalType": "uint256",
                    "name": "id",
                    "type": "uint256"
                }
            ],
            "name": "uri",
            "outputs": [
                {
                    "internalType": "string",
                    "name": "",
                    "type": "string"
                }
            ],
            "stateMutability": "view",
            "type": "function"
        }
    ],
    "bytecode": "0x608060405234801561001057600080fd5b506134b1806100206000396000f3fe608060405234801561001057600080fd5b506004361061012b5760003560e01c80638da5cb5b116100ad578063e985e9c511610071578063e985e9c514610316578063f242432a14610346578063f2fde38b14610362578063f5298aca1461037e578063fdfc0f001461039a5761012b565b80638da5cb5b14610286578063a22cb465146102a4578063cc0cb37d146102c0578063e0921f85146102de578063e3cf99ee146102fa5761012b565b80632eb2c2d6116100f45780632eb2c2d6146101f85780634e1273f4146102145780635970819114610244578063715018a614610260578063731133e91461026a5761012b565b8062fdd58e1461013057806301ffc9a71461016057806302fe5305146101905780630e89341c146101ac5780631f7fdffa146101dc575b600080fd5b61014a600480360381019061014591906120c8565b6103ca565b6040516101579190612117565b60405180910390f35b61017a6004803603810190610175919061218a565b610433565b60405161018791906121d2565b60405180910390f35b6101aa60048036038101906101a59190612333565b610515565b005b6101c660048036038101906101c1919061237c565b610529565b6040516101d39190612428565b60405180910390f35b6101f660048036038101906101f191906125b3565b61055a565b005b610212600480360381019061020d919061266e565b610629565b005b61022e60048036038101906102299190612800565b6106d1565b60405161023b9190612936565b60405180910390f35b61025e6004803603810190610259919061237c565b6107da565b005b610268610823565b005b610284600480360381019061027f9190612958565b610837565b005b61028e610958565b60405161029b91906129ea565b60405180910390f35b6102be60048036038101906102b99190612a31565b610990565b005b6102c86109a6565b6040516102d59190612117565b60405180910390f35b6102f860048036038101906102f39190612a71565b6109ac565b005b610314600480360381019061030f9190612ae0565b610b4d565b005b610330600480360381019061032b9190612b47565b610c6c565b60405161033d91906121d2565b60405180910390f35b610360600480360381019061035b9190612b87565b610d0e565b005b61037c60048036038101906103779190612c1e565b610db6565b005b61039860048036038101906103939190612c4b565b610e3c565b005b6103b460048036038101906103af91906120c8565b610e54565b6040516103c19190612117565b60405180910390f35b6000806103d5610e79565b905080600001600084815260200190815260200160002060008573ffffffffffffffffffffffffffffffffffffffff1673ffffffffffffffffffffffffffffffffffffffff1681526020019081526020016000205491505092915050565b60007fd9b67a26000000000000000000000000000000000000000000000000000000007bffffffffffffffffffffffffffffffffffffffffffffffffffffffff1916827bffffffffffffffffffffffffffffffffffffffffffffffffffffffff191614806104fe57507f0e89341c000000000000000000000000000000000000000000000000000000007bffffffffffffffffffffffffffffffffffffffffffffffffffffffff1916827bffffffffffffffffffffffffffffffffffffffffffffffffffffffff1916145b8061050e575061050d82610ea1565b5b9050919050565b61051d610f0b565b61052681610f92565b50565b606061053482610fb4565b6040516020016105449190612cda565b6040516020818303038152906040529050919050565b610562610f0b565b61056e84848484611057565b60005b83518110156106225782818151811061058d5761058c612cf1565b5b6020026020010151600160008773ffffffffffffffffffffffffffffffffffffffff1673ffffffffffffffffffffffffffffffffffffffff16815260200190815260200160002060008684815181106105e9576105e8612cf1565b5b60200260200101518152602001908152602001600020600082825461060e9190612d4f565b925050819055508080600101915050610571565b5050505050565b60006106336110dd565b90508073ffffffffffffffffffffffffffffffffffffffff168673ffffffffffffffffffffffffffffffffffffffff161415801561067857506106768682610c6c565b155b156106bc5780866040517fe237d9220000000000000000000000000000000000000000000000000000000081526004016106b3929190612d83565b60405180910390fd5b6106c986868686866110e5565b505050505050565b6060815183511461071d57815183516040517f5b059991000000000000000000000000000000000000000000000000000000008152600401610714929190612dac565b60405180910390fd5b6000835167ffffffffffffffff81111561073a57610739612208565b5b6040519080825280602002602001820160405280156107685781602001602082028036833780820191505090505b50905060005b84518110156107cf576107a561078d82876111dd90919063ffffffff16565b6107a083876111f190919063ffffffff16565b6103ca565b8282815181106107b8576107b7612cf1565b5b60200260200101818152505080600101905061076e565b508091505092915050565b6107e2610f0b565b806000819055507fb9af1fe691e05b7d52fbc295834eb057c658a6fc0b85a5a9ca29e2ed78a56d09816040516108189190612117565b60405180910390a150565b61082b610f0b565b6108356000611205565b565b61083f610f0b565b60005482600160008773ffffffffffffffffffffffffffffffffffffffff1673ffffffffffffffffffffffffffffffffffffffff16815260200190815260200160002060008681526020019081526020016000205461089e9190612d4f565b11156108df576040517f08c379a00000000000000000000000000000000000000000000000000000000081526004016108d690612e21565b60405180910390fd5b6108eb848484846112dc565b81600160008673ffffffffffffffffffffffffffffffffffffffff1673ffffffffffffffffffffffffffffffffffffffff1681526020019081526020016000206000858152602001908152602001600020600082825461094b9190612d4f565b9250508190555050505050565b600080610963611375565b90508060000160009054906101000a900473ffffffffffffffffffffffffffffffffffffffff1691505090565b6109a261099b6110dd565b838361139d565b5050565b60005481565b60006109b661151c565b905060008160000160089054906101000a900460ff1615905060008260000160009054906101000a900467ffffffffffffffff1690506000808267ffffffffffffffff16148015610a045750825b9050600060018367ffffffffffffffff16148015610a39575060003073ffffffffffffffffffffffffffffffffffffffff163b145b905081158015610a47575080155b15610a7e576040517ff92ee8a900000000000000000000000000000000000000000000000000000000815260040160405180910390fd5b60018560000160006101000a81548167ffffffffffffffff021916908367ffffffffffffffff1602179055508315610ace5760018560000160086101000a81548160ff0219169083151502179055505b610ad788611544565b610ae087611558565b856000819055508315610b435760008560000160086101000a81548160ff0219169083151502179055507fc7f505b2f371ae2175ee4913f4499e1f2633a7b5936321eed1cdaeb6115181d26001604051610b3a9190612e9a565b60405180910390a15b5050505050505050565b610b55610f0b565b6001610b6185846103ca565b1015610ba2576040517f08c379a0000000000000000000000000000000000000000000000000000000008152600401610b9990612f01565b60405180910390fd5b6001610bae85836103ca565b1015610bef576040517f08c379a0000000000000000000000000000000000000000000000000000000008152600401610be690612f6d565b60405180910390fd5b610c0c848484600160405180602001604052806000815250610d0e565b610c29838583600160405180602001604052806000815250610d0e565b7fe308cd7f18cd18e3d8b2eaaf00472d74a8bf70fcb4af4099325acc64d2e71bf084848484604051610c5e9493929190612f8d565b60405180910390a150505050565b600080610c77610e79565b90508060010160008573ffffffffffffffffffffffffffffffffffffffff1673ffffffffffffffffffffffffffffffffffffffff16815260200190815260200160002060008473ffffffffffffffffffffffffffffffffffffffff1673ffffffffffffffffffffffffffffffffffffffff16815260200190815260200160002060009054906101000a900460ff1691505092915050565b6000610d186110dd565b90508073ffffffffffffffffffffffffffffffffffffffff168673ffffffffffffffffffffffffffffffffffffffff1614158015610d5d5750610d5b8682610c6c565b155b15610da15780866040517fe237d922000000000000000000000000000000000000000000000000000000008152600401610d98929190612d83565b60405180910390fd5b610dae868686868661156c565b505050505050565b610dbe610f0b565b600073ffffffffffffffffffffffffffffffffffffffff168173ffffffffffffffffffffffffffffffffffffffff1603610e305760006040517f1e4fbdf7000000000000000000000000000000000000000000000000000000008152600401610e2791906129ea565b60405180910390fd5b610e3981611205565b50565b610e44610f0b565b610e4f838383611677565b505050565b6001602052816000526040600020602052806000526040600020600091509150505481565b60007f88be536d5240c274a3b1d3a1be54482fd9caa294f08c62a7cde569f49a3c4500905090565b60007f01ffc9a7000000000000000000000000000000000000000000000000000000007bffffffffffffffffffffffffffffffffffffffffffffffffffffffff1916827bffffffffffffffffffffffffffffffffffffffffffffffffffffffff1916149050919050565b610f136110dd565b73ffffffffffffffffffffffffffffffffffffffff16610f31610958565b73ffffffffffffffffffffffffffffffffffffffff1614610f9057610f546110dd565b6040517f118cdaa7000000000000000000000000000000000000000000000000000000008152600401610f8791906129ea565b60405180910390fd5b565b6000610f9c610e79565b905081816002019081610faf91906131d4565b505050565b60606000610fc0610e79565b9050806002018054610fd190613001565b80601f0160208091040260200160405190810160405280929190818152602001828054610ffd90613001565b801561104a5780601f1061101f5761010080835404028352916020019161104a565b820191906000526020600020905b81548152906001019060200180831161102d57829003601f168201915b5050505050915050919050565b600073ffffffffffffffffffffffffffffffffffffffff168473ffffffffffffffffffffffffffffffffffffffff16036110c95760006040517f57f447ce0000000000000000000000000000000000000000000000000000000081526004016110c091906129ea565b60405180910390fd5b6110d760008585858561171e565b50505050565b600033905090565b600073ffffffffffffffffffffffffffffffffffffffff168473ffffffffffffffffffffffffffffffffffffffff16036111575760006040517f57f447ce00000000000000000000000000000000000000000000000000000000815260040161114e91906129ea565b60405180910390fd5b600073ffffffffffffffffffffffffffffffffffffffff168573ffffffffffffffffffffffffffffffffffffffff16036111c95760006040517f01a835140000000000000000000000000000000000000000000000000000000081526004016111c091906129ea565b60405180910390fd5b6111d6858585858561171e565b5050505050565b600060208202602084010151905092915050565b600060208202602084010151905092915050565b600061120f611375565b905060008160000160009054906101000a900473ffffffffffffffffffffffffffffffffffffffff169050828260000160006101000a81548173ffffffffffffffffffffffffffffffffffffffff021916908373ffffffffffffffffffffffffffffffffffffffff1602179055508273ffffffffffffffffffffffffffffffffffffffff168173ffffffffffffffffffffffffffffffffffffffff167f8be0079c531659141344cd1fd0a4f28419497f9722a3daafe3b4186f6b6457e060405160405180910390a3505050565b600073ffffffffffffffffffffffffffffffffffffffff168473ffffffffffffffffffffffffffffffffffffffff160361134e5760006040517f57f447ce00000000000000000000000000000000000000000000000000000000815260040161134591906129ea565b60405180910390fd5b60008061135b85856117d0565b9150915061136d60008784848761171e565b505050505050565b60007f9016d09d72d40fdae2fd8ceac6b6234c7706214fd39c1cd1e609a0528c199300905090565b60006113a7610e79565b9050600073ffffffffffffffffffffffffffffffffffffffff168373ffffffffffffffffffffffffffffffffffffffff160361141b5760006040517fced3e10000000000000000000000000000000000000000000000000000000000815260040161141291906129ea565b60405180910390fd5b818160010160008673ffffffffffffffffffffffffffffffffffffffff1673ffffffffffffffffffffffffffffffffffffffff16815260200190815260200160002060008573ffffffffffffffffffffffffffffffffffffffff1673ffffffffffffffffffffffffffffffffffffffff16815260200190815260200160002060006101000a81548160ff0219169083151502179055508273ffffffffffffffffffffffffffffffffffffffff168473ffffffffffffffffffffffffffffffffffffffff167f17307eab39ab6107e8899845ad3d59bd9653f200f220920489ca2b5937696c318460405161150e91906121d2565b60405180910390a350505050565b60007ff0c57e16840df040f15088dc2f81fe391c3923bec73e23a9662efc9c229c6a00905090565b61154c611800565b61155581611840565b50565b611560611800565b61156981611854565b50565b600073ffffffffffffffffffffffffffffffffffffffff168473ffffffffffffffffffffffffffffffffffffffff16036115de5760006040517f57f447ce0000000000000000000000000000000000000000000000000000000081526004016115d591906129ea565b60405180910390fd5b600073ffffffffffffffffffffffffffffffffffffffff168573ffffffffffffffffffffffffffffffffffffffff16036116505760006040517f01a8351400000000000000000000000000000000000000000000000000000000815260040161164791906129ea565b60405180910390fd5b60008061165d85856117d0565b9150915061166e878784848761171e565b50505050505050565b600073ffffffffffffffffffffffffffffffffffffffff168373ffffffffffffffffffffffffffffffffffffffff16036116e95760006040517f01a835140000000000000000000000000000000000000000000000000000000081526004016116e091906129ea565b60405180910390fd5b6000806116f684846117d0565b9150915061171785600084846040518060200160405280600081525061171e565b5050505050565b61172a858585856118da565b600073ffffffffffffffffffffffffffffffffffffffff168473ffffffffffffffffffffffffffffffffffffffff16146117c95760006117686110dd565b905060018451036117b85760006117896000866111f190919063ffffffff16565b905060006117a16000866111f190919063ffffffff16565b90506117b1838989858589611c98565b50506117c7565b6117c6818787878787611e4c565b5b505b5050505050565b60608060405191506001825283602083015260408201905060018152826020820152604081016040529250929050565b611808612000565b61183e576040517fd7e6bcf800000000000000000000000000000000000000000000000000000000815260040160405180910390fd5b565b611848611800565b61185181610f92565b50565b61185c611800565b600073ffffffffffffffffffffffffffffffffffffffff168173ffffffffffffffffffffffffffffffffffffffff16036118ce5760006040517f1e4fbdf70000000000000000000000000000000000000000000000000000000081526004016118c591906129ea565b60405180910390fd5b6118d781611205565b50565b60006118e4610e79565b9050815183511461193057825182516040517f5b059991000000000000000000000000000000000000000000000000000000008152600401611927929190612dac565b60405180910390fd5b600061193a6110dd565b905060005b8451811015611b5257600061195d82876111f190919063ffffffff16565b9050600061197483876111f190919063ffffffff16565b9050600073ffffffffffffffffffffffffffffffffffffffff168973ffffffffffffffffffffffffffffffffffffffff1614611aa757600085600001600084815260200190815260200160002060008b73ffffffffffffffffffffffffffffffffffffffff1673ffffffffffffffffffffffffffffffffffffffff16815260200190815260200160002054905081811015611a4c57898183856040517f03dee4c5000000000000000000000000000000000000000000000000000000008152600401611a4394939291906132a6565b60405180910390fd5b81810386600001600085815260200190815260200160002060008c73ffffffffffffffffffffffffffffffffffffffff1673ffffffffffffffffffffffffffffffffffffffff16815260200190815260200160002081905550505b600073ffffffffffffffffffffffffffffffffffffffff168873ffffffffffffffffffffffffffffffffffffffff1614611b45578085600001600084815260200190815260200160002060008a73ffffffffffffffffffffffffffffffffffffffff1673ffffffffffffffffffffffffffffffffffffffff1681526020019081526020016000206000828254611b3d9190612d4f565b925050819055505b505080600101905061193f565b506001845103611c11576000611b726000866111f190919063ffffffff16565b90506000611b8a6000866111f190919063ffffffff16565b90508673ffffffffffffffffffffffffffffffffffffffff168873ffffffffffffffffffffffffffffffffffffffff168473ffffffffffffffffffffffffffffffffffffffff167fc3d58168c5ae7397731d063d5bbf3d657854427343f4c083240f7aacaa2d0f628585604051611c02929190612dac565b60405180910390a45050611c90565b8473ffffffffffffffffffffffffffffffffffffffff168673ffffffffffffffffffffffffffffffffffffffff168273ffffffffffffffffffffffffffffffffffffffff167f4a39dc06d4c0dbc64b70af90fd698a233a518aa5d07e595d983b8c0526c8f7fb8787604051611c879291906132eb565b60405180910390a45b505050505050565b60008473ffffffffffffffffffffffffffffffffffffffff163b1115611e44578373ffffffffffffffffffffffffffffffffffffffff1663f23a6e6187878686866040518663ffffffff1660e01b8152600401611cf9959493929190613377565b6020604051808303816000875af1925050508015611d3557506040513d601f19601f82011682018060405250810190611d3291906133e6565b60015b611db9573d8060008114611d65576040519150601f19603f3d011682016040523d82523d6000602084013e611d6a565b606091505b506000815103611db157846040517f57f447ce000000000000000000000000000000000000000000000000000000008152600401611da891906129ea565b60405180910390fd5b805181602001fd5b63f23a6e6160e01b7bffffffffffffffffffffffffffffffffffffffffffffffffffffffff1916817bffffffffffffffffffffffffffffffffffffffffffffffffffffffff191614611e4257846040517f57f447ce000000000000000000000000000000000000000000000000000000008152600401611e3991906129ea565b60405180910390fd5b505b505050505050565b60008473ffffffffffffffffffffffffffffffffffffffff163b1115611ff8578373ffffffffffffffffffffffffffffffffffffffff1663bc197c8187878686866040518663ffffffff1660e01b8152600401611ead959493929190613413565b6020604051808303816000875af1925050508015611ee957506040513d601f19601f82011682018060405250810190611ee691906133e6565b60015b611f6d573d8060008114611f19576040519150601f19603f3d011682016040523d82523d6000602084013e611f1e565b606091505b506000815103611f6557846040517f57f447ce000000000000000000000000000000000000000000000000000000008152600401611f5c91906129ea565b60405180910390fd5b805181602001fd5b63bc197c8160e01b7bffffffffffffffffffffffffffffffffffffffffffffffffffffffff1916817bffffffffffffffffffffffffffffffffffffffffffffffffffffffff191614611ff657846040517f57f447ce000000000000000000000000000000000000000000000000000000008152600401611fed91906129ea565b60405180910390fd5b505b505050505050565b600061200a61151c565b60000160089054906101000a900460ff16905090565b6000604051905090565b600080fd5b600080fd5b600073ffffffffffffffffffffffffffffffffffffffff82169050919050565b600061205f82612034565b9050919050565b61206f81612054565b811461207a57600080fd5b50565b60008135905061208c81612066565b92915050565b6000819050919050565b6120a581612092565b81146120b057600080fd5b50565b6000813590506120c28161209c565b92915050565b600080604083850312156120df576120de61202a565b5b60006120ed8582860161207d565b92505060206120fe858286016120b3565b9150509250929050565b61211181612092565b82525050565b600060208201905061212c6000830184612108565b92915050565b60007fffffffff0000000000000000000000000000000000000000000000000000000082169050919050565b61216781612132565b811461217257600080fd5b50565b6000813590506121848161215e565b92915050565b6000602082840312156121a05761219f61202a565b5b60006121ae84828501612175565b91505092915050565b60008115159050919050565b6121cc816121b7565b82525050565b60006020820190506121e760008301846121c3565b92915050565b600080fd5b600080fd5b6000601f19601f8301169050919050565b7f4e487b7100000000000000000000000000000000000000000000000000000000600052604160045260246000fd5b612240826121f7565b810181811067ffffffffffffffff8211171561225f5761225e612208565b5b80604052505050565b6000612272612020565b905061227e8282612237565b919050565b600067ffffffffffffffff82111561229e5761229d612208565b5b6122a7826121f7565b9050602081019050919050565b82818337600083830152505050565b60006122d66122d184612283565b612268565b9050828152602081018484840111156122f2576122f16121f2565b5b6122fd8482856122b4565b509392505050565b600082601f83011261231a576123196121ed565b5b813561232a8482602086016122c3565b91505092915050565b6000602082840312156123495761234861202a565b5b600082013567ffffffffffffffff8111156123675761236661202f565b5b61237384828501612305565b91505092915050565b6000602082840312156123925761239161202a565b5b60006123a0848285016120b3565b91505092915050565b600081519050919050565b600082825260208201905092915050565b60005b838110156123e35780820151818401526020810190506123c8565b60008484015250505050565b60006123fa826123a9565b61240481856123b4565b93506124148185602086016123c5565b61241d816121f7565b840191505092915050565b6000602082019050818103600083015261244281846123ef565b905092915050565b600067ffffffffffffffff82111561246557612464612208565b5b602082029050602081019050919050565b600080fd5b600061248e6124898461244a565b612268565b905080838252602082019050602084028301858111156124b1576124b0612476565b5b835b818110156124da57806124c688826120b3565b8452602084019350506020810190506124b3565b5050509392505050565b600082601f8301126124f9576124f86121ed565b5b813561250984826020860161247b565b91505092915050565b600067ffffffffffffffff82111561252d5761252c612208565b5b612536826121f7565b9050602081019050919050565b600061255661255184612512565b612268565b905082815260208101848484011115612572576125716121f2565b5b61257d8482856122b4565b509392505050565b600082601f83011261259a576125996121ed565b5b81356125aa848260208601612543565b91505092915050565b600080600080608085870312156125cd576125cc61202a565b5b60006125db8782880161207d565b945050602085013567ffffffffffffffff8111156125fc576125fb61202f565b5b612608878288016124e4565b935050604085013567ffffffffffffffff8111156126295761262861202f565b5b612635878288016124e4565b925050606085013567ffffffffffffffff8111156126565761265561202f565b5b61266287828801612585565b91505092959194509250565b600080600080600060a0868803121561268a5761268961202a565b5b60006126988882890161207d565b95505060206126a98882890161207d565b945050604086013567ffffffffffffffff8111156126ca576126c961202f565b5b6126d6888289016124e4565b935050606086013567ffffffffffffffff8111156126f7576126f661202f565b5b612703888289016124e4565b925050608086013567ffffffffffffffff8111156127245761272361202f565b5b61273088828901612585565b9150509295509295909350565b600067ffffffffffffffff82111561275857612757612208565b5b602082029050602081019050919050565b600061277c6127778461273d565b612268565b9050808382526020820190506020840283018581111561279f5761279e612476565b5b835b818110156127c857806127b4888261207d565b8452602084019350506020810190506127a1565b5050509392505050565b600082601f8301126127e7576127e66121ed565b5b81356127f7848260208601612769565b91505092915050565b600080604083850312156128175761281661202a565b5b600083013567ffffffffffffffff8111156128355761283461202f565b5b612841858286016127d2565b925050602083013567ffffffffffffffff8111156128625761286161202f565b5b61286e858286016124e4565b9150509250929050565b600081519050919050565b600082825260208201905092915050565b6000819050602082019050919050565b6128ad81612092565b82525050565b60006128bf83836128a4565b60208301905092915050565b6000602082019050919050565b60006128e382612878565b6128ed8185612883565b93506128f883612894565b8060005b8381101561292957815161291088826128b3565b975061291b836128cb565b9250506001810190506128fc565b5085935050505092915050565b6000602082019050818103600083015261295081846128d8565b905092915050565b600080600080608085870312156129725761297161202a565b5b60006129808782880161207d565b9450506020612991878288016120b3565b93505060406129a2878288016120b3565b925050606085013567ffffffffffffffff8111156129c3576129c261202f565b5b6129cf87828801612585565b91505092959194509250565b6129e481612054565b82525050565b60006020820190506129ff60008301846129db565b92915050565b612a0e816121b7565b8114612a1957600080fd5b50565b600081359050612a2b81612a05565b92915050565b60008060408385031215612a4857612a4761202a565b5b6000612a568582860161207d565b9250506020612a6785828601612a1c565b9150509250929050565b600080600060608486031215612a8a57612a8961202a565b5b600084013567ffffffffffffffff811115612aa857612aa761202f565b5b612ab486828701612305565b9350506020612ac58682870161207d565b9250506040612ad6868287016120b3565b9150509250925092565b60008060008060808587031215612afa57612af961202a565b5b6000612b088782880161207d565b9450506020612b198782880161207d565b9350506040612b2a878288016120b3565b9250506060612b3b878288016120b3565b91505092959194509250565b60008060408385031215612b5e57612b5d61202a565b5b6000612b6c8582860161207d565b9250506020612b7d8582860161207d565b9150509250929050565b600080600080600060a08688031215612ba357612ba261202a565b5b6000612bb18882890161207d565b9550506020612bc28882890161207d565b9450506040612bd3888289016120b3565b9350506060612be4888289016120b3565b925050608086013567ffffffffffffffff811115612c0557612c0461202f565b5b612c1188828901612585565b9150509295509295909350565b600060208284031215612c3457612c3361202a565b5b6000612c428482850161207d565b91505092915050565b600080600060608486031215612c6457612c6361202a565b5b6000612c728682870161207d565b9350506020612c83868287016120b3565b9250506040612c94868287016120b3565b9150509250925092565b600081905092915050565b6000612cb4826123a9565b612cbe8185612c9e565b9350612cce8185602086016123c5565b80840191505092915050565b6000612ce68284612ca9565b915081905092915050565b7f4e487b7100000000000000000000000000000000000000000000000000000000600052603260045260246000fd5b7f4e487b7100000000000000000000000000000000000000000000000000000000600052601160045260246000fd5b6000612d5a82612092565b9150612d6583612092565b9250828201905080821115612d7d57612d7c612d20565b5b92915050565b6000604082019050612d9860008301856129db565b612da560208301846129db565b9392505050565b6000604082019050612dc16000830185612108565b612dce6020830184612108565b9392505050565b7f45786365656473206d6178696d756d206d696e7461626c652077617665730000600082015250565b6000612e0b601e836123b4565b9150612e1682612dd5565b602082019050919050565b60006020820190508181036000830152612e3a81612dfe565b9050919050565b6000819050919050565b600067ffffffffffffffff82169050919050565b6000819050919050565b6000612e84612e7f612e7a84612e41565b612e5f565b612e4b565b9050919050565b612e9481612e69565b82525050565b6000602082019050612eaf6000830184612e8b565b92915050565b7f496e73756666696369656e74207265717565737465722062616c616e63650000600082015250565b6000612eeb601e836123b4565b9150612ef682612eb5565b602082019050919050565b60006020820190508181036000830152612f1a81612ede565b9050919050565b7f496e73756666696369656e7420726573706f6e6465722062616c616e63650000600082015250565b6000612f57601e836123b4565b9150612f6282612f21565b602082019050919050565b60006020820190508181036000830152612f8681612f4a565b9050919050565b6000608082019050612fa260008301876129db565b612faf60208301866129db565b612fbc6040830185612108565b612fc96060830184612108565b95945050505050565b7f4e487b7100000000000000000000000000000000000000000000000000000000600052602260045260246000fd5b6000600282049050600182168061301957607f821691505b60208210810361302c5761302b612fd2565b5b50919050565b60008190508160005260206000209050919050565b60006020601f8301049050919050565b600082821b905092915050565b6000600883026130947fffffffffffffffffffffffffffffffffffffffffffffffffffffffffffffffff82613057565b61309e8683613057565b95508019841693508086168417925050509392505050565b60006130d16130cc6130c784612092565b612e5f565b612092565b9050919050565b6000819050919050565b6130eb836130b6565b6130ff6130f7826130d8565b848454613064565b825550505050565b600090565b613114613107565b61311f8184846130e2565b505050565b5b818110156131435761313860008261310c565b600181019050613125565b5050565b601f8211156131885761315981613032565b61316284613047565b81016020851015613171578190505b61318561317d85613047565b830182613124565b50505b505050565b600082821c905092915050565b60006131ab6000198460080261318d565b1980831691505092915050565b60006131c4838361319a565b9150826002028217905092915050565b6131dd826123a9565b67ffffffffffffffff8111156131f6576131f5612208565b5b6132008254613001565b61320b828285613147565b600060209050601f83116001811461323e576000841561322c578287015190505b61323685826131b8565b86555061329e565b601f19841661324c86613032565b60005b828110156132745784890151825560018201915060208501945060208101905061324f565b86831015613291578489015161328d601f89168261319a565b8355505b6001600288020188555050505b505050505050565b60006080820190506132bb60008301876129db565b6132c86020830186612108565b6132d56040830185612108565b6132e26060830184612108565b95945050505050565b6000604082019050818103600083015261330581856128d8565b9050818103602083015261331981846128d8565b90509392505050565b600081519050919050565b600082825260208201905092915050565b600061334982613322565b613353818561332d565b93506133638185602086016123c5565b61336c816121f7565b840191505092915050565b600060a08201905061338c60008301886129db565b61339960208301876129db565b6133a66040830186612108565b6133b36060830185612108565b81810360808301526133c5818461333e565b90509695505050505050565b6000815190506133e08161215e565b92915050565b6000602082840312156133fc576133fb61202a565b5b600061340a848285016133d1565b91505092915050565b600060a08201905061342860008301886129db565b61343560208301876129db565b818103604083015261344781866128d8565b9050818103606083015261345b81856128d8565b9050818103608083015261346f818461333e565b9050969550505050505056fea2646970667358221220698e3df408b9b427ac9d5a69eea8e2482808315cd0f49ac80a9286ea97b48ca564736f6c63430008180033",
    "linkReferences": {},
    "deployedLinkReferences": {}
}